{
    "_format": "hh-sol-artifact-1",
    "contractName": "BondingCurve",
    "sourceName": "contracts/BodingCurve.sol",
    "abi": [
        {
            "inputs": [],
            "name": "InsufficientLiquidity",
            "type": "error"
        },
        {
            "inputs": [],
            "name": "A",
            "outputs": [
                {
                    "internalType": "uint256",
                    "name": "",
                    "type": "uint256"
                }
            ],
            "stateMutability": "view",
            "type": "function"
        },
        {
            "inputs": [],
            "name": "B",
            "outputs": [
                {
                    "internalType": "uint256",
                    "name": "",
                    "type": "uint256"
                }
            ],
            "stateMutability": "view",
            "type": "function"
        },
        {
            "inputs": [
                {
                    "internalType": "uint256",
                    "name": "currentSupply",
                    "type": "uint256"
                },
                {
                    "internalType": "uint256",
                    "name": "ethOrderSize",
                    "type": "uint256"
                }
            ],
            "name": "getEthBuyQuote",
            "outputs": [
                {
                    "internalType": "uint256",
                    "name": "",
                    "type": "uint256"
                }
            ],
            "stateMutability": "pure",
            "type": "function"
        },
        {
            "inputs": [
                {
                    "internalType": "uint256",
                    "name": "currentSupply",
                    "type": "uint256"
                },
                {
                    "internalType": "uint256",
                    "name": "ethOrderSize",
                    "type": "uint256"
                }
            ],
            "name": "getEthSellQuote",
            "outputs": [
                {
                    "internalType": "uint256",
                    "name": "",
                    "type": "uint256"
                }
            ],
            "stateMutability": "pure",
            "type": "function"
        },
        {
            "inputs": [
                {
                    "internalType": "uint256",
                    "name": "currentSupply",
                    "type": "uint256"
                },
                {
                    "internalType": "uint256",
                    "name": "tokenOrderSize",
                    "type": "uint256"
                }
            ],
            "name": "getTokenBuyQuote",
            "outputs": [
                {
                    "internalType": "uint256",
                    "name": "",
                    "type": "uint256"
                }
            ],
            "stateMutability": "pure",
            "type": "function"
        },
        {
            "inputs": [
                {
                    "internalType": "uint256",
                    "name": "currentSupply",
                    "type": "uint256"
                },
                {
                    "internalType": "uint256",
                    "name": "tokensToSell",
                    "type": "uint256"
                }
            ],
            "name": "getTokenSellQuote",
            "outputs": [
                {
                    "internalType": "uint256",
                    "name": "",
                    "type": "uint256"
                }
            ],
            "stateMutability": "pure",
            "type": "function"
        }
    ],
    "bytecode": "0x60c0604052648bb2c9700060805264a15a04d20060a05234801561002257600080fd5b5060805160a0516109b66100b660003960008181606c0152818161012d01528181610163015281816101b2015281816101fd0152818161022c01528181610284015281816102da0152818161030901528181610362015281816103d001528181610401015261045001526000818160f1015281816101910152818161024d0152818161032a015261042f01526109b66000f3fe608060405234801561001057600080fd5b50600436106100625760003560e01c806332e7c5bf14610067578063447df229146100a057806373317164146100b357806390d60a0e146100c6578063c1e4dcbc146100d9578063f446c1d0146100ec575b600080fd5b61008e7f000000000000000000000000000000000000000000000000000000000000000081565b60405190815260200160405180910390f35b61008e6100ae366004610922565b610113565b61008e6100c1366004610922565b6101f0565b61008e6100d4366004610922565b6102cd565b61008e6100e7366004610922565b610394565b61008e7f000000000000000000000000000000000000000000000000000000000000000081565b60008281610121828561095a565b905060006101576101527f000000000000000000000000000000000000000000000000000000000000000085610479565b6104ab565b905060006101886101527f000000000000000000000000000000000000000000000000000000000000000085610479565b905060006101e27f00000000000000000000000000000000000000000000000000000000000000007f00000000000000000000000000000000000000000000000000000000000000006101db868661096d565b9190610628565b955050505050505b92915050565b60008183826102226101527f000000000000000000000000000000000000000000000000000000000000000084610479565b90506000610271847f00000000000000000000000000000000000000000000000000000000000000007f0000000000000000000000000000000000000000000000000000000000000000610628565b61027b908361096d565b905060006102b27f00000000000000000000000000000000000000000000000000000000000000006102ac846106be565b906108de565b905060006102c0828661096d565b9998505050505050505050565b60008282826102ff6101527f000000000000000000000000000000000000000000000000000000000000000085610479565b9050600061034e837f00000000000000000000000000000000000000000000000000000000000000007f0000000000000000000000000000000000000000000000000000000000000000610628565b610358908361095a565b905060008461038a7f00000000000000000000000000000000000000000000000000000000000000006102ac856106be565b6101e2919061096d565b6000818310156103b75760405163bb55fd2760e01b815260040160405180910390fd5b8260006103c4848361096d565b905060006103f56101527f000000000000000000000000000000000000000000000000000000000000000085610479565b905060006104266101527f000000000000000000000000000000000000000000000000000000000000000085610479565b905060006101e27f00000000000000000000000000000000000000000000000000000000000000007f00000000000000000000000000000000000000000000000000000000000000006101db858761096d565b6000816000190483111561049b57811561049b5763bac65e5b6000526004601cfd5b50670de0b6b3a764000091020490565b600068023f2fa8f6da5b9d281982136104c357919050565b680755bf798b4a1bf1e582126104e15763a37bfec96000526004601cfd5b6503782dace9d9604e83901b059150600060606bb17217f7d1cf79abc9e3b39884821b056001605f1b01901d6bb17217f7d1cf79abc9e3b39881029093036c240c330e9fb2d9cbaf0fd5aafb1981018102606090811d6d0277594991cfc85f6e2461837cd9018202811d6d1a521255e34f6a5061b25ef1c9c319018202811d6db1bbb201f443cf962f1a1d3db4a5018202811d6e02c72388d9f74f51a9331fed693f1419018202811d6e05180bb14799ab47a8a8cb2a527d57016d02d16720577bd19bf614176fe9ea6c10fe68e7fd37d0007b713f765084018402831d9081019084016d01d3967ed30fc4f89c02bab5708119010290911d6e0587f503bb6ea29d25fcb740196450019091026d360d7aeea093263ecc6e0ecb291760621b010574029d9dc38563c32e5c2f6dc192ee70ef65f9978af30260c3939093039290921c92915050565b828202818385830414851517026106b35760001983850981811082019003828486098360000384168285116106655763ae47f7026000526004601cfd5b938490049383821190920360008390038390046001010292030417600260038302811880840282030280840282030280840282030280840282030280840282030280840290910302026106b7565b8190045b9392505050565b6fffffffffffffffffffffffffffffffff811160071b81811c67ffffffffffffffff1060061b1781811c63ffffffff1060051b1781811c61ffff1060041b1781811c60ff1060031b176000821361071d57631615e6386000526004601cfd5b7ff8f9f9faf9fdfafbf9fdfcfdfafbfcfef9fafdfafcfcfbfefafafcfbffffffff6f8421084210842108cc6318c6db6d54be83831c1c601f161a1890811b609f90811c6c465772b2bbbb5f824b15207a3081018102606090811d6d0388eaa27412d5aca026815d636e018202811d6d0df99ac502031bf953eff472fdcc018202811d6d13cdffb29d51d99322bdff5f2211018202811d6d0a0f742023def783a307a986912e018202811d6d01920d8043ca89b5239253284e42018202811d6c0b7a86d7375468fac667a0a527016c29508e458543d8aa4df2abee7883018302821d6d0139601a2efabe717e604cbb4894018302821d6d02247f7a7b6594320649aa03aba1018302821d6c8c3f38e95a6b1ff2ab1c3b343619018302821d6d02384773bdf1ac5676facced60901901830290911d6cb9a025d814b29c212b8b1a07cd1901909102780a09507084cc699bb0e71ea869ffffffffffffffffffffffff190105711340daa0d5f769dba1915cef59f0815a5506029190037d0267a36c0c95b3975ab3ee5b203a7614a3f75373f047d803ae7b6687f2b302017d57115e47018c7177eebf7cd370a3356a1b7863008a5ae8028c72b88642840160ae1d90565b60007812725dd1d243aba0e75fe645cc4873f9e65afe688c928e1f228310820261091057637c5f487d6000526004601cfd5b50670de0b6b3a7640000919091020490565b6000806040838503121561093557600080fd5b50508035926020909101359150565b634e487b7160e01b600052601160045260246000fd5b808201808211156101ea576101ea610944565b818103818111156101ea576101ea61094456fea26469706673582212209c504b72d913fcfeee0feea758157704f0563e9b17a43fdb3f5edefce9a3efb764736f6c634300081c0033",
    "linkReferences": {},
    "deployedLinkReferences": {}
}